{
  "contractName": "Delegate2",
  "abi": [
    {
      "constant": false,
      "inputs": [],
      "name": "withdraw",
      "outputs": [],
      "payable": false,
      "stateMutability": "nonpayable",
      "type": "function"
    },
    {
      "constant": false,
      "inputs": [],
      "name": "delegateCallTest",
      "outputs": [],
      "payable": false,
      "stateMutability": "nonpayable",
      "type": "function"
    },
    {
      "constant": true,
      "inputs": [],
      "name": "testAssignment",
      "outputs": [],
      "payable": false,
      "stateMutability": "view",
      "type": "function"
    },
    {
      "constant": false,
      "inputs": [],
      "name": "deposit",
      "outputs": [],
      "payable": true,
      "stateMutability": "payable",
      "type": "function"
    }
  ],
  "bytecode": "0x608060405260008060006101000a81548160ff02191690831515021790555034801561002a57600080fd5b506103298061003a6000396000f3fe60806040526004361061003f5760003560e01c80633ccfd60b14610044578063706c10201461005b578063d0e30db014610072578063e764ddb21461007c575b600080fd5b34801561005057600080fd5b50610059610093565b005b34801561006757600080fd5b506100706101fc565b005b61007a610208565b005b34801561008857600080fd5b5061009161020a565b005b6000670de0b6b3a764000090506000809054906101000a900460ff166100b857600080fd5b6000809054906101000a900460ff166101c35760003373ffffffffffffffffffffffffffffffffffffffff168260405180600001905060006040518083038185875af1925050503d806000811461012b576040519150601f19603f3d011682016040523d82523d6000602084013e610130565b606091505b5050905060016000806101000a81548160ff021916908315150217905550806101c1576040517f08c379a00000000000000000000000000000000000000000000000000000000081526004018080602001828103825260168152602001807f54686520636865636b206973206661696c696e6721210000000000000000000081525060200191505060405180910390fd5b505b3373ffffffffffffffffffffffffffffffffffffffff166108fc829081150290604051600060405180830381858888f193505050505050565b60004290506001905050565b565b3373ffffffffffffffffffffffffffffffffffffffff16600036604051808383808284378083019250505092505050600060405180830381855af49150503d8060008114610274576040519150601f19603f3d011682016040523d82523d6000602084013e610279565b606091505b50505060003373ffffffffffffffffffffffffffffffffffffffff16600036604051808383808284378083019250505092505050600060405180830381855af49150503d80600081146102e8576040519150601f19603f3d011682016040523d82523d6000602084013e6102ed565b606091505b505090505056fea265627a7a723158202c7a8b458b4817b9b5f58d7ca6a5eafe9e83f588e9c83757c9f98778425a907464736f6c63430005100032",
  "source": "pragma solidity >= 0.5.8;\r\ncontract Delegate2 {\r\n    bool sent = false;\r\n    address owner; \r\n\r\n    function withdraw() public {\r\n        //Ether to send\r\n        uint transferAmt = 1 ether;\r\n        require(sent);\r\n\r\n        if(!sent){\r\n            //Assign some variables (in a tuple) from return values of call.value()()\r\n            //sent = true;s\r\n            (bool success,) = msg.sender.call.value(transferAmt)(\"\");\r\n            sent = true;\r\n\r\n            //If call fails, throw exception (revert transaction);\r\n            if (!success) {\r\n              revert(\"The check is failing!!\");\r\n            } \r\n        }\r\n\r\n        msg.sender.send(transferAmt);\r\n    }\r\n\r\n    //For Dangerous Delegates, the score is 1 + n number of delegatecalls\r\n    //This function will score 2 since 2 delegatecalls are using msg.data which is problematic\r\n    //It will not fail noOtherOpcodes since the previous function withdraw() has another interaction which makes the contract has some liquidity (other than delegatecall)\r\n    function delegateCallTest() public {\r\n        msg.sender.delegatecall(msg.data);\r\n        (bool success,) = msg.sender.delegatecall(msg.data);\r\n    }\r\n\r\n    function testAssignment() public view {\r\n        uint hello = block.timestamp;\r\n        hello = 1;\r\n    }\r\n\r\n    //A simple function to make this contract payable\r\n    function deposit() public payable {}\r\n}",
  "sourcePath": "C:/Users/User/OneDrive - Swinburne Masters/OneDrive - Swinburne University Of Technology Sarawak Campus/Notes/After Confirmation/code-parser-web/contracts/Delegate2.sol",
  "compiler": {
    "name": "solc",
    "version": "0.5.16+commit.9c3226ce.Emscripten.clang"
  },
  "schemaVersion": "3.2.3",
  "updatedAt": "2020-08-19T12:25:15.265Z",
  "devdoc": {
    "methods": {}
  },
  "userdoc": {
    "methods": {}
  }
}