{
  "contractName": "Test",
  "abi": [
    {
      "constant": true,
      "inputs": [
        {
          "internalType": "address",
          "name": "",
          "type": "address"
        }
      ],
      "name": "refunds",
      "outputs": [
        {
          "internalType": "uint256",
          "name": "",
          "type": "uint256"
        }
      ],
      "payable": false,
      "stateMutability": "view",
      "type": "function"
    },
    {
      "constant": false,
      "inputs": [],
      "name": "increment",
      "outputs": [],
      "payable": false,
      "stateMutability": "nonpayable",
      "type": "function"
    },
    {
      "constant": false,
      "inputs": [],
      "name": "decrement",
      "outputs": [],
      "payable": false,
      "stateMutability": "nonpayable",
      "type": "function"
    },
    {
      "constant": true,
      "inputs": [],
      "name": "getCount",
      "outputs": [
        {
          "internalType": "uint256",
          "name": "",
          "type": "uint256"
        }
      ],
      "payable": false,
      "stateMutability": "view",
      "type": "function"
    },
    {
      "constant": false,
      "inputs": [],
      "name": "withdraw",
      "outputs": [],
      "payable": false,
      "stateMutability": "nonpayable",
      "type": "function"
    },
    {
      "constant": false,
      "inputs": [],
      "name": "refundAll",
      "outputs": [],
      "payable": false,
      "stateMutability": "nonpayable",
      "type": "function"
    },
    {
      "constant": false,
      "inputs": [],
      "name": "deposit",
      "outputs": [],
      "payable": true,
      "stateMutability": "payable",
      "type": "function"
    }
  ],
  "bytecode": "0x608060405260008060146101000a81548160ff0219169083151502179055506001805534801561002e57600080fd5b5061037f8061003e6000396000f3fe6080604052600436106100705760003560e01c8063a87d942c1161004e578063a87d942c146100ba578063bc3da535146100e5578063d09de08a1461014a578063d0e30db01461016157610070565b80632baeceb71461007557806338e771ab1461008c5780633ccfd60b146100a3575b600080fd5b34801561008157600080fd5b5061008a61016b565b005b34801561009857600080fd5b506100a161017d565b005b3480156100af57600080fd5b506100b8610288565b005b3480156100c657600080fd5b506100cf610314565b6040518082815260200191505060405180910390f35b3480156100f157600080fd5b506101346004803603602081101561010857600080fd5b81019080803573ffffffffffffffffffffffffffffffffffffffff16906020019092919050505061031e565b6040518082815260200191505060405180910390f35b34801561015657600080fd5b5061015f610336565b005b610169610348565b005b60018060008282540392505081905550565b60005b600280549050811015610285576002818154811061019a57fe5b9060005260206000200160009054906101000a900473ffffffffffffffffffffffffffffffffffffffff1673ffffffffffffffffffffffffffffffffffffffff166108fc60036000600285815481106101ef57fe5b9060005260206000200160009054906101000a900473ffffffffffffffffffffffffffffffffffffffff1673ffffffffffffffffffffffffffffffffffffffff1673ffffffffffffffffffffffffffffffffffffffff168152602001908152602001600020549081150290604051600060405180830381858888f1935050505061027857600080fd5b8080600101915050610180565b50565b600115610311576000156102d3573373ffffffffffffffffffffffffffffffffffffffff166108fc6001549081150290604051600060405180830381858888f193505050505061030c565b3373ffffffffffffffffffffffffffffffffffffffff166108fc6001549081150290604051600060405180830381858888f19350505050505b610312565b5b565b6000600154905090565b60036020528060005260406000206000915090505481565b60018060008282540192505081905550565b56fea265627a7a723158208620dfcd62439b97330136541ed404ebaad6badf35fbd443f6616b973dc654e964736f6c63430005100032",
  "source": "pragma solidity >= 0.5.8;\r\ncontract Test {\r\n    address owner;\r\n    bool lock = false; \r\n    uint private count = 1;\r\n    address payable[] private refundAddresses;\r\n    mapping (address => uint) public refunds;\r\n    \r\n    function increment() public {count += 1;}\r\n\r\n    function decrement() public {count -= 1;}   \r\n\r\n    function getCount() public view returns(uint) \r\n    {return count;}\r\n\r\n    modifier mutex () {\r\n        bool sent = false;\r\n        require(!sent);\r\n        sent = true;\r\n        _;\r\n    }\r\n\r\n    modifier hello() {\r\n        if(true) { _; } else { }\r\n    }\r\n\r\n    modifier hello2() {\r\n        if(false) _; else _;\r\n    }\r\n\r\n    function withdraw() public hello() hello2() {\r\n        //sends a count of Wei to the caller\r\n        //require(!lock);\r\n        //lock = true; \r\n        msg.sender.send(count);\r\n    }\r\n\r\n    function refundAll() public {\r\n        //loop through an array of addresses\r\n        for(uint i; i < refundAddresses.length; i++) { \r\n            //unreasonable error handling\r\n            //throws exception on one failure, reverting all refunds\r\n            require(refundAddresses[i].send(refunds[refundAddresses[i]]));\r\n        }\r\n    }\r\n\r\n    //A simple function to make this contract payable\r\n    function deposit() public payable {}\r\n}\r\n\r\n",
  "sourcePath": "C:/Users/User/OneDrive - Swinburne Masters/OneDrive - Swinburne University Of Technology Sarawak Campus/Notes/After Confirmation/code-parser-web/contracts/Test.sol",
  "compiler": {
    "name": "solc",
    "version": "0.5.16+commit.9c3226ce.Emscripten.clang"
  },
  "schemaVersion": "3.2.3",
  "updatedAt": "2020-11-02T16:23:25.614Z",
  "devdoc": {
    "methods": {}
  },
  "userdoc": {
    "methods": {}
  }
}