{
  "contractName": "Test",
  "abi": [
    {
      "inputs": [],
      "payable": false,
      "stateMutability": "nonpayable",
      "type": "constructor"
    },
    {
      "anonymous": false,
      "inputs": [
        {
          "indexed": false,
          "internalType": "uint256",
          "name": "hello",
          "type": "uint256"
        },
        {
          "indexed": false,
          "internalType": "bool",
          "name": "there",
          "type": "bool"
        }
      ],
      "name": "Something",
      "type": "event"
    },
    {
      "payable": true,
      "stateMutability": "payable",
      "type": "fallback"
    },
    {
      "constant": true,
      "inputs": [
        {
          "internalType": "address",
          "name": "",
          "type": "address"
        }
      ],
      "name": "balances",
      "outputs": [
        {
          "internalType": "uint256",
          "name": "",
          "type": "uint256"
        }
      ],
      "payable": false,
      "stateMutability": "view",
      "type": "function"
    },
    {
      "constant": false,
      "inputs": [],
      "name": "withdraw",
      "outputs": [
        {
          "internalType": "bool",
          "name": "success",
          "type": "bool"
        }
      ],
      "payable": false,
      "stateMutability": "nonpayable",
      "type": "function"
    },
    {
      "constant": false,
      "inputs": [],
      "name": "withdraw2",
      "outputs": [
        {
          "internalType": "uint256",
          "name": "result",
          "type": "uint256"
        }
      ],
      "payable": false,
      "stateMutability": "nonpayable",
      "type": "function"
    },
    {
      "constant": false,
      "inputs": [],
      "name": "withdraw3",
      "outputs": [],
      "payable": false,
      "stateMutability": "nonpayable",
      "type": "function"
    },
    {
      "constant": false,
      "inputs": [],
      "name": "withdraw4",
      "outputs": [],
      "payable": false,
      "stateMutability": "nonpayable",
      "type": "function"
    },
    {
      "constant": false,
      "inputs": [],
      "name": "loops",
      "outputs": [],
      "payable": false,
      "stateMutability": "nonpayable",
      "type": "function"
    },
    {
      "constant": false,
      "inputs": [
        {
          "internalType": "bytes32",
          "name": "something",
          "type": "bytes32"
        }
      ],
      "name": "time",
      "outputs": [
        {
          "internalType": "uint256",
          "name": "",
          "type": "uint256"
        }
      ],
      "payable": false,
      "stateMutability": "nonpayable",
      "type": "function"
    },
    {
      "constant": false,
      "inputs": [],
      "name": "hashing",
      "outputs": [
        {
          "internalType": "uint256",
          "name": "",
          "type": "uint256"
        }
      ],
      "payable": false,
      "stateMutability": "nonpayable",
      "type": "function"
    },
    {
      "constant": false,
      "inputs": [],
      "name": "indexes",
      "outputs": [],
      "payable": false,
      "stateMutability": "nonpayable",
      "type": "function"
    },
    {
      "constant": false,
      "inputs": [],
      "name": "unlock",
      "outputs": [],
      "payable": false,
      "stateMutability": "nonpayable",
      "type": "function"
    }
  ],
  "bytecode": "0x608060405260008060146101000a81548160ff02191690831515021790555034801561002a57600080fd5b50336000806101000a81548173ffffffffffffffffffffffffffffffffffffffff021916908373ffffffffffffffffffffffffffffffffffffffff160217905550610c4f8061007a6000396000f3fe6080604052600436106100915760003560e01c80638e3eee5f116100595780638e3eee5f1461031f578063938b9ceb14610336578063a69df4b51461034d578063cd97d84e14610364578063ea98847b1461038f57610091565b8063067903f91461020e57806327e235e3146102255780633ccfd60b1461028a5780634fa3eeff146102b95780638b6166cd146102d0575b600060029050606060003373ffffffffffffffffffffffffffffffffffffffff166040518060000190506000604051808303816000865af19150503d80600081146100f8576040519150601f19603f3d011682016040523d82523d6000602084013e6100fd565b606091505b505090506001801561014157503373ffffffffffffffffffffffffffffffffffffffff166108fc60019081150290604051600060405180830381858888f193505050505b50600080600060029150915060008060016000915091506001600280905080945081955050506000809054906101000a900473ffffffffffffffffffffffffffffffffffffffff1673ffffffffffffffffffffffffffffffffffffffff16600036604051808383808284378083019250505092505050600060405180830381855af49150503d80600081146101f2576040519150601f19603f3d011682016040523d82523d6000602084013e6101f7565b606091505b5050809450506102056103ba565b50505050505050005b34801561021a57600080fd5b50610223610462565b005b34801561023157600080fd5b506102746004803603602081101561024857600080fd5b81019080803573ffffffffffffffffffffffffffffffffffffffff169060200190929190505050610590565b6040518082815260200191505060405180910390f35b34801561029657600080fd5b5061029f6105a8565b604051808215151515815260200191505060405180910390f35b3480156102c557600080fd5b506102ce6103ba565b005b3480156102dc57600080fd5b50610309600480360360208110156102f357600080fd5b810190808035906020019092919050505061065c565b6040518082815260200191505060405180910390f35b34801561032b57600080fd5b5061033461072a565b005b34801561034257600080fd5b5061034b610903565b005b34801561035957600080fd5b50610362610abe565b005b34801561037057600080fd5b50610379610af0565b6040518082815260200191505060405180910390f35b34801561039b57600080fd5b506103a4610b06565b6040518082815260200191505060405180910390f35b6001600060146101000a81548160ff021916908315150217905550600060149054906101000a900460ff166104605760008060009054906101000a900473ffffffffffffffffffffffffffffffffffffffff1673ffffffffffffffffffffffffffffffffffffffff166108fc60019081150290604051600060405180830381858888f19350505050905060008060146101000a81548160ff021916908315150217905550505b565b600060039050600060149054906101000a900460ff1661048157600080fd5b6002811415610509576001600060146101000a81548160ff0219169083151502179055506000809054906101000a900473ffffffffffffffffffffffffffffffffffffffff1673ffffffffffffffffffffffffffffffffffffffff166108fc829081150290604051600060405180830381858888f1935050505061050457600080fd5b610573565b6003811415610572576000809054906101000a900473ffffffffffffffffffffffffffffffffffffffff1673ffffffffffffffffffffffffffffffffffffffff166108fc829081150290604051600060405180830381858888f1935050505061057157600080fd5b5b5b60008060146101000a81548160ff02191690831515021790555050565b60016020528060005260406000206000915090505481565b60008060009054906101000a900473ffffffffffffffffffffffffffffffffffffffff1673ffffffffffffffffffffffffffffffffffffffff163373ffffffffffffffffffffffffffffffffffffffff161415610659576000809054906101000a900473ffffffffffffffffffffffffffffffffffffffff1673ffffffffffffffffffffffffffffffffffffffff166108fc60019081150290604051600060405180830381858888f1935050505090505b90565b6000804290506000604c42019050600081905060006109148401905060006018905060003290503273ffffffffffffffffffffffffffffffffffffffff163373ffffffffffffffffffffffffffffffffffffffff1614806106bc57504286145b806106c657504382145b806106d057508186145b508186146106dd57600080fd5b60003373ffffffffffffffffffffffffffffffffffffffff166108fc60019081150290604051600060405180830381858888f193505050509050424060001c975050505050505050919050565b610732610bc8565b806020015160008151811061074357fe5b6020026020010151506002816020015160008151811061075f57fe5b6020026020010181815250506000816020015160008151811061077e57fe5b6020026020010151905060006001905060029050826000015173ffffffffffffffffffffffffffffffffffffffff166108fc60019081150290604051600060405180830381858888f1935050505050606060036040519080825280602002602001820160405280156107ff5781602001602082028038833980820191505090505b50905061080a610bf8565b6040518060600160405280600181526020018481526020016003815250905060018260028151811061083857fe5b602002602001018181525050600082848151811061085257fe5b60200260200101818152505060008160016003811061086d57fe5b602002015190506002600160003373ffffffffffffffffffffffffffffffffffffffff1673ffffffffffffffffffffffffffffffffffffffff16815260200190815260200160002081905550600160003373ffffffffffffffffffffffffffffffffffffffff1673ffffffffffffffffffffffffffffffffffffffff168152602001908152602001600020549450505050505050565b6001600060146101000a81548160ff021916908315150217905550600060149054906101000a900460ff161561093857600080fd5b60008060006002915091505b6000821480156109545750600281145b156109ba576000809054906101000a900473ffffffffffffffffffffffffffffffffffffffff1673ffffffffffffffffffffffffffffffffffffffff166108fc60019081150290604051600060405180830381858888f193505050505060039050610944565b5b6000809054906101000a900473ffffffffffffffffffffffffffffffffffffffff1673ffffffffffffffffffffffffffffffffffffffff166108fc60149081150290604051600060405180830381858888f193505050505060049050600282148015610a275750600381145b6109bb5760008090505b6003811015610a9f576000809054906101000a900473ffffffffffffffffffffffffffffffffffffffff1673ffffffffffffffffffffffffffffffffffffffff166108fc60029081150290604051600060405180830381858888f19350505050508080600101915050610a31565b5060008060146101000a81548160ff0219169083151502179055505050565b600060149054906101000a900460ff1615610aee5760008060146101000a81548160ff0219169083151502179055505b565b60008043409050610b01434061065c565b505090565b60008060149054906101000a900460ff1615610b2157600080fd5b6001600060146101000a81548160ff021916908315150217905550600080610b4857600080fd5b6000809054906101000a900473ffffffffffffffffffffffffffffffffffffffff1673ffffffffffffffffffffffffffffffffffffffff166108fc60019081150290604051600060405180830381858888f19350505050905060008060146101000a81548160ff0219169083151502179055506001426001010191505090565b6040518060400160405280600073ffffffffffffffffffffffffffffffffffffffff168152602001606081525090565b604051806060016040528060039060208202803883398082019150509050509056fea265627a7a72315820eb6c60bb27fe735d87b7befd26ed269337fed4b849894b57607d943e293330f264736f6c63430005100032",
  "source": "// SPDX-License-Identifier: MIT\r\npragma solidity >= 0.5.16;\r\ncontract Test {\r\n    address payable wiz;\r\n    bool sent = false;\r\n\r\n    event Something(uint hello, bool there);\r\n\r\n    struct Stuff { \r\n        address payable payee;\r\n        uint[] array;\r\n    }\r\n\r\n    modifier onlywizard { if (msg.sender == wiz) _; }\r\n    modifier mutex1 { require(!sent); sent=true;  _; }\r\n    modifier mutex2Fail { sent=true; if(!sent) { _; } }\r\n    modifier mutex3Fail { sent=true; require(!sent); _;}\r\n\r\n    constructor() public {\r\n        wiz = msg.sender;\r\n    }\r\n\r\n    function withdraw() public onlywizard returns(bool success) {\r\n        return wiz.send(1);\r\n    }\r\n\r\n    function withdraw2() public mutex1 returns (uint result) {\r\n        bool success;\r\n        require(success);\r\n        success = wiz.send(1);\r\n        sent=false;\r\n        return (1 + block.timestamp + 1);\r\n    }\r\n\r\n    function withdraw3() public mutex2Fail {\r\n        bool success;\r\n        success = wiz.send(1);\r\n\r\n        if(success) {\r\n            //empty..\r\n        }\r\n\r\n        sent=false;\r\n    }\r\n\r\n    function withdraw4() public {\r\n        uint i = 3;\r\n        require(sent);\r\n        \r\n        if(i==2) {\r\n            sent = true;\r\n            require(wiz.send(i));\r\n        } else if (i==3) {\r\n            require(wiz.send(i));\r\n        }\r\n\r\n        sent=false;\r\n    }\r\n\r\n    function loops() mutex3Fail public {\r\n        (uint i, uint y) = (0,2);\r\n        while(i == 0 && y == 2) {\r\n            wiz.send(1);\r\n            y=3;\r\n        }\r\n        do {\r\n            wiz.send(20);\r\n            y=4;\r\n        } while (i == 2 && y == 3);\r\n\r\n        for(uint b=0; b < 3; b++) {\r\n            wiz.send(2);\r\n        }\r\n\r\n        sent=false;\r\n    } \r\n\r\n    function() payable external {\r\n        uint b = 2; \r\n        bytes memory oof;\r\n        (bool success,) = msg.sender.call(\"\");\r\n        if(true && msg.sender.send(1)) {\r\n\r\n        }\r\n        (bool thing, uint a) = (false,0+1+1);\r\n        (bool test,uint y) = (true,0);\r\n        (thing, a) = (true,2);\r\n        (thing, ) = wiz.delegatecall(msg.data);\r\n        withdraw3();\r\n    }\r\n\r\n    function time(bytes32 something) public returns (uint) {\r\n        block.timestamp;\r\n        uint time1 = block.timestamp; //fails test 1\r\n        uint time2 = block.timestamp + 2432 / 32;\r\n        uint time3 = time2;\r\n        uint time5 = time1 + 2324;\r\n        uint num = 12 + 12;\r\n\r\n        address origin = tx.origin;\r\n\r\n        blockhash(block.timestamp);\r\n\r\n        if(msg.sender == tx.origin || time1 == block.timestamp || num == block.number || time1 == num) { //should be no problem\r\n\r\n        }\r\n            \r\n        require(time1 == num); //fails test 2 since there is an interaction inside\r\n            bool send = msg.sender.send(1);\r\n\r\n        return uint(blockhash(block.timestamp)); //fails test 3, problematic\r\n    }\r\n\r\n    function hashing() public returns (uint) {\r\n        bytes32 hash = blockhash(block.number);\r\n        time(blockhash(block.number));\r\n    }\r\n\r\n    mapping(address => uint) public balances;\r\n    function indexes() public {\r\n        Stuff memory stuff;\r\n        stuff.array[0];\r\n        stuff.array[0] = 2;\r\n        uint mappingValue = stuff.array[0];\r\n        uint value = 1;\r\n        value = 2;\r\n        value;\r\n        stuff.payee.send(1);\r\n        uint[] memory array = new uint[](3);\r\n        uint[3] memory array2 = [uint(1), value, 3];\r\n\r\n        array[2] = 1;\r\n        array[value] = 0;\r\n        uint value2 = array2[1];\r\n\r\n        balances[msg.sender] = 2;\r\n        mappingValue = balances[msg.sender];\r\n    }\r\n\r\n    function unlock() public {\r\n        if(sent) sent = false;\r\n    }\r\n}\r\n",
  "sourcePath": "C:/Users/User/OneDrive - Swinburne Masters/OneDrive - Swinburne University Of Technology Sarawak Campus/Notes/Pre Draft Thesis/sol-web-parser/contracts/Test.sol",
  "compiler": {
    "name": "solc",
    "version": "0.5.16+commit.9c3226ce.Emscripten.clang"
  },
  "schemaVersion": "3.3.3",
  "updatedAt": "2021-03-29T13:13:49.756Z",
  "devdoc": {
    "methods": {}
  },
  "userdoc": {
    "methods": {}
  }
}