{
  "contractName": "Victim",
  "abi": [
    {
      "constant": false,
      "inputs": [],
      "name": "withdraw",
      "outputs": [],
      "payable": false,
      "stateMutability": "nonpayable",
      "type": "function"
    },
    {
      "constant": false,
      "inputs": [],
      "name": "deposit",
      "outputs": [],
      "payable": true,
      "stateMutability": "payable",
      "type": "function"
    },
    {
      "constant": false,
      "inputs": [],
      "name": "test",
      "outputs": [],
      "payable": false,
      "stateMutability": "nonpayable",
      "type": "function"
    },
    {
      "constant": false,
      "inputs": [],
      "name": "exception",
      "outputs": [],
      "payable": false,
      "stateMutability": "nonpayable",
      "type": "function"
    },
    {
      "constant": false,
      "inputs": [],
      "name": "time",
      "outputs": [
        {
          "internalType": "uint256",
          "name": "",
          "type": "uint256"
        }
      ],
      "payable": false,
      "stateMutability": "nonpayable",
      "type": "function"
    },
    {
      "constant": false,
      "inputs": [],
      "name": "delegateCallTest",
      "outputs": [],
      "payable": false,
      "stateMutability": "nonpayable",
      "type": "function"
    }
  ],
  "bytecode": "0x608060405260008060006101000a81548160ff021916908315150217905550604c60015560015460025534801561003557600080fd5b50610857806100456000396000f3fe6080604052600436106100555760003560e01c806316ada5471461005a5780633ccfd60b14610085578063b27471181461009c578063d0e30db0146100b3578063e764ddb2146100bd578063f8a8fd6d146100d4575b600080fd5b34801561006657600080fd5b5061006f6100eb565b6040518082815260200191505060405180910390f35b34801561009157600080fd5b5061009a610209565b005b3480156100a857600080fd5b506100b161037d565b005b6100bb61050f565b005b3480156100c957600080fd5b506100d2610511565b005b3480156100e057600080fd5b506100e96105dd565b005b600080429050600042905060004390506000604c42019050601761014342010390504290506000819050600084610cb401905060006109148601905060008790506018955060003290503273ffffffffffffffffffffffffffffffffffffffff16600060019054906101000a900473ffffffffffffffffffffffffffffffffffffffff1673ffffffffffffffffffffffffffffffffffffffff16148061019057504288145b8061019a57504387145b806101a457508688145b506001156101b1576101f6565b438714156101f55760003373ffffffffffffffffffffffffffffffffffffffff166108fc60019081150290604051600060405180830381858888f193505050509050505b5b424060001c995050505050505050505090565b6000806000670de0b6b3a764000090506000809054906101000a900460ff1661023157600080fd5b6000809054906101000a900460ff166103425760003373ffffffffffffffffffffffffffffffffffffffff168260405180600001905060006040518083038185875af1925050503d80600081146102a4576040519150601f19603f3d011682016040523d82523d6000602084013e6102a9565b606091505b50509050600080905060016000806101000a81548160ff0219169083151502179055508161033f576040517f08c379a00000000000000000000000000000000000000000000000000000000081526004018080602001828103825260168152602001807f54686520636865636b206973206661696c696e6721210000000000000000000081525060200191505060405180910390fd5b50505b3373ffffffffffffffffffffffffffffffffffffffff166108fc829081150290604051600060405180830381858888f1935050505050505050565b3373ffffffffffffffffffffffffffffffffffffffff16600160405180600001905060006040518083038185875af1925050503d80600081146103dc576040519150601f19603f3d011682016040523d82523d6000602084013e6103e1565b606091505b5050503373ffffffffffffffffffffffffffffffffffffffff166108fc60019081150290604051600060405180830381858888f193505050505060003373ffffffffffffffffffffffffffffffffffffffff166108fc60019081150290604051600060405180830381858888f19350505050905060003373ffffffffffffffffffffffffffffffffffffffff166108fc60019081150290604051600060405180830381858888f1935050505090503373ffffffffffffffffffffffffffffffffffffffff166108fc60019081150290604051600060405180830381858888f193505050508061050257503373ffffffffffffffffffffffffffffffffffffffff166108fc60029081150290604051600060405180830381858888f193505050505b61050b57600080fd5b5050565b565b3373ffffffffffffffffffffffffffffffffffffffff16604051806000019050600060405180830381855af49150503d806000811461056c576040519150601f19603f3d011682016040523d82523d6000602084013e610571565b606091505b50505060003373ffffffffffffffffffffffffffffffffffffffff16604051806000019050600060405180830381855af49150503d80600081146105d1576040519150601f19603f3d011682016040523d82523d6000602084013e6105d6565b606091505b5050905050565b60008060008090505b60038110156105fc5780806001019150506105e6565b505b60001561060a576105fe565b5b600061060b5760018214806106205750600282145b1561062a5761075f565b80806106365750600282145b806106415750600182145b1561064b5761075e565b60018015610657575060015b8015610661575060015b801561066b575060015b15610679576002915061075d565b60008015610685575060005b8061068e575060005b801561069a5750600182145b156106ab576000600190505061075c565b60011580156106c25750600180156106c1575060015b5b156106d3576000600190505061075b565b600180156106e057506001155b806106f45750600015806106f357506001155b5b80610707575060018015610706575060015b5b156107115761075a565b3373ffffffffffffffffffffffffffffffffffffffff166108fc60019081150290604051600060405180830381858888f193505050501561075157610759565b600060029050505b5b5b5b5b5b5b600161076a57600080fd5b3373ffffffffffffffffffffffffffffffffffffffff166108fc60019081150290604051600060405180830381858888f1935050505080156107ac5750600282145b806107b5575060015b6107be57600080fd5b3073ffffffffffffffffffffffffffffffffffffffff1663d0e30db06040518163ffffffff1660e01b8152600401600060405180830381600087803b15801561080657600080fd5b505af115801561081a573d6000803e3d6000fd5b50505050505056fea265627a7a72315820f6115465071558c3b3adb219888ff702f380389e49cc993aed20592421067b8a64736f6c63430005100032",
  "source": "pragma solidity >= 0.5.8;\r\ncontract Victim {\r\n    bool sent = false;\r\n    address owner; \r\n    uint number = 2432 / 32;\r\n    uint number2 = number;\r\n\r\n    modifier testModifier() {\r\n        uint hellolool;\r\n        _;\r\n    }\r\n\r\n    modifier testModifier2() {\r\n        uint lolol;\r\n        _;\r\n    }\r\n\r\n    function withdraw() public testModifier testModifier2 {\r\n        //Ether to send\r\n        uint transferAmt = 1 ether;\r\n        require(sent);\r\n\r\n        if(!sent){\r\n            //Assign some variables (in a tuple) from return values of call.value()()\r\n            //sent = true;s\r\n            (bool success,) = msg.sender.call.value(transferAmt)(\"\");\r\n            uint hello = 0;\r\n            sent = true;\r\n\r\n            //If call fails, throw exception (revert transaction);\r\n            if (!success) {\r\n              revert(\"The check is failing!!\");\r\n            } \r\n        }\r\n\r\n        msg.sender.send(transferAmt);\r\n    }\r\n    \r\n    //A simple function to deposit some Ether to this contract (payable)\r\n    function deposit() public payable {}\r\n\r\n    function test() public {\r\n        uint a;\r\n        bool b;\r\n        for(uint i=0;i<3;i++){\r\n            \r\n        }\r\n\r\n        while(false){\r\n\r\n        }\r\n\r\n        do {\r\n\r\n        } while(false);\r\n\r\n        if(a == 1 || a == 2){\r\n\r\n        } else if (b || a==2 || a==1) {\r\n        \r\n        } else if(true && true && true && true) {\r\n            a = 2;\r\n        } else if (((false && false) || false) && a == 1) {\r\n            uint hello = 1;\r\n        } else if (!true && (true && true)) {\r\n            bool gello = true;\r\n        } else if ((true && !true) || (!false || !true) || (true && true)) {\r\n            \r\n        } else if (msg.sender.send(1)) {\r\n\r\n        } else {\r\n            uint ballo = 2;\r\n        }\r\n\r\n        require(true);\r\n        require(msg.sender.send(1) && a == 2 || true);\r\n        this.deposit();\r\n    }\r\n\r\n    function exception() public {\r\n        //failures\r\n        msg.sender.call.value(1)(\"\");\r\n        msg.sender.send(1);\r\n\r\n        //test 1 is success\r\n        bool sent = msg.sender.send(1);\r\n        bool sent2 = msg.sender.send(1);    \r\n        \r\n        //test 2 should succeed too\r\n        if(sent){\r\n\r\n        }\r\n\r\n        //sent2 should fail\r\n\r\n        //will pass all\r\n        require(msg.sender.send(1) || msg.sender.send(2));\r\n\r\n        //two failures from test 1) plus one from test 2) should score a total of 3  \r\n    }\r\n\r\n    function time() public returns (uint) {\r\n        block.timestamp;\r\n        block.number;\r\n        now;\r\n\r\n        uint hello = now;\r\n\r\n        uint time = block.timestamp;\r\n        uint num = block.number;\r\n        uint time2 = block.timestamp + 2432 / 32;\r\n        time2 = block.timestamp + 323 - 23;\r\n        time2 = block.timestamp;\r\n        uint time3 = time2;\r\n        uint time4 = 3252 + time;\r\n        uint time5 = time + 2324;\r\n        uint hello2 = hello;\r\n        num = 12 + 12;\r\n\r\n        tx.origin;\r\n        address origin = tx.origin;\r\n\r\n        blockhash(block.timestamp);\r\n\r\n        if(owner == tx.origin || time == block.timestamp || num == block.number || time == num) { //should be problematic, especially if there is a interaction inside\r\n\r\n        }\r\n\r\n        if(true) {\r\n\r\n        } else if (num == block.number) {\r\n            bool send = msg.sender.send(1);\r\n        }\r\n\r\n        return uint(blockhash(block.timestamp)); //problematic\r\n        \r\n    }\r\n\r\n    function delegateCallTest() public {\r\n        msg.sender.delegatecall(\"\");\r\n        (bool success,) = msg.sender.delegatecall(\"\");\r\n    }\r\n}",
  "sourcePath": "C:\\Users\\User\\OneDrive - Swinburne Masters\\OneDrive - Swinburne University Of Technology Sarawak Campus\\Notes\\After Confirmation\\code-parser-web\\contracts\\Victim.sol",
  "compiler": {
    "name": "solc",
    "version": "0.5.16+commit.9c3226ce.Emscripten.clang"
  },
  "schemaVersion": "3.2.3",
  "updatedAt": "2020-11-02T16:23:25.668Z",
  "devdoc": {
    "methods": {}
  },
  "userdoc": {
    "methods": {}
  }
}