{
  "contractName": "Victim",
  "abi": [
    {
      "constant": false,
      "inputs": [],
      "name": "withdraw",
      "outputs": [],
      "payable": false,
      "stateMutability": "nonpayable",
      "type": "function"
    },
    {
      "constant": false,
      "inputs": [],
      "name": "deposit",
      "outputs": [],
      "payable": true,
      "stateMutability": "payable",
      "type": "function"
    },
    {
      "constant": false,
      "inputs": [],
      "name": "test",
      "outputs": [],
      "payable": false,
      "stateMutability": "nonpayable",
      "type": "function"
    },
    {
      "constant": false,
      "inputs": [],
      "name": "exception",
      "outputs": [],
      "payable": false,
      "stateMutability": "nonpayable",
      "type": "function"
    },
    {
      "constant": false,
      "inputs": [],
      "name": "time",
      "outputs": [
        {
          "internalType": "uint256",
          "name": "",
          "type": "uint256"
        }
      ],
      "payable": false,
      "stateMutability": "nonpayable",
      "type": "function"
    },
    {
      "constant": false,
      "inputs": [],
      "name": "delegateCallTest",
      "outputs": [],
      "payable": false,
      "stateMutability": "nonpayable",
      "type": "function"
    },
    {
      "constant": false,
      "inputs": [],
      "name": "loops",
      "outputs": [],
      "payable": false,
      "stateMutability": "nonpayable",
      "type": "function"
    }
  ],
  "bytecode": "0x608060405260008060006101000a81548160ff021916908315150217905550604c60015560015460025534801561003557600080fd5b5061095f806100456000396000f3fe6080604052600436106100705760003560e01c8063b27471181161004e578063b2747118146100ce578063d0e30db0146100e5578063e764ddb2146100ef578063f8a8fd6d1461010657610070565b806316ada547146100755780633ccfd60b146100a0578063938b9ceb146100b7575b600080fd5b34801561008157600080fd5b5061008a61011d565b6040518082815260200191505060405180910390f35b3480156100ac57600080fd5b506100b561023b565b005b3480156100c357600080fd5b506100cc6103af565b005b3480156100da57600080fd5b506100e3610478565b005b6100ed61060a565b005b3480156100fb57600080fd5b5061010461060c565b005b34801561011257600080fd5b5061011b6106e5565b005b600080429050600042905060004390506000604c42019050601761014342010390504290506000819050600084610cb401905060006109148601905060008790506018955060003290503273ffffffffffffffffffffffffffffffffffffffff16600060019054906101000a900473ffffffffffffffffffffffffffffffffffffffff1673ffffffffffffffffffffffffffffffffffffffff1614806101c257504288145b806101cc57504387145b806101d657508688145b506001156101e357610228565b438714156102275760003373ffffffffffffffffffffffffffffffffffffffff166108fc60019081150290604051600060405180830381858888f193505050509050505b5b424060001c995050505050505050505090565b6000806000670de0b6b3a764000090506000809054906101000a900460ff1661026357600080fd5b6000809054906101000a900460ff166103745760003373ffffffffffffffffffffffffffffffffffffffff168260405180600001905060006040518083038185875af1925050503d80600081146102d6576040519150601f19603f3d011682016040523d82523d6000602084013e6102db565b606091505b50509050600080905060016000806101000a81548160ff02191690831515021790555081610371576040517f08c379a00000000000000000000000000000000000000000000000000000000081526004018080602001828103825260168152602001807f54686520636865636b206973206661696c696e6721210000000000000000000081525060200191505060405180910390fd5b50505b3373ffffffffffffffffffffffffffffffffffffffff166108fc829081150290604051600060405180830381858888f1935050505050505050565b60008090505b600a811015610409576000600290503373ffffffffffffffffffffffffffffffffffffffff166108fc60019081150290604051600060405180830381858888f19350505050505080806001019150506103b5565b5b600b81101561042057808060010191505061040a565b5b8080600101915050600c811115610421573373ffffffffffffffffffffffffffffffffffffffff166108fc60019081150290604051600060405180830381858888f193505050501561047557600060039050505b50565b3373ffffffffffffffffffffffffffffffffffffffff16600160405180600001905060006040518083038185875af1925050503d80600081146104d7576040519150601f19603f3d011682016040523d82523d6000602084013e6104dc565b606091505b5050503373ffffffffffffffffffffffffffffffffffffffff166108fc60019081150290604051600060405180830381858888f193505050505060003373ffffffffffffffffffffffffffffffffffffffff166108fc60019081150290604051600060405180830381858888f19350505050905060003373ffffffffffffffffffffffffffffffffffffffff166108fc60019081150290604051600060405180830381858888f1935050505090503373ffffffffffffffffffffffffffffffffffffffff166108fc60019081150290604051600060405180830381858888f19350505050806105fd57503373ffffffffffffffffffffffffffffffffffffffff166108fc60029081150290604051600060405180830381858888f193505050505b61060657600080fd5b5050565b565b3373ffffffffffffffffffffffffffffffffffffffff16604051806000019050600060405180830381855af49150503d8060008114610667576040519150601f19603f3d011682016040523d82523d6000602084013e61066c565b606091505b50505060003373ffffffffffffffffffffffffffffffffffffffff16604051806000019050600060405180830381855af49150503d80600081146106cc576040519150601f19603f3d011682016040523d82523d6000602084013e6106d1565b606091505b505090506001156106e1576106e2565b5b50565b60008060008090505b60038110156107045780806001019150506106ee565b505b60001561071257610706565b5b60006107135760018214806107285750600282145b1561073257610867565b808061073e5750600282145b806107495750600182145b1561075357610866565b6001801561075f575060015b8015610769575060015b8015610773575060015b156107815760029150610865565b6000801561078d575060005b80610796575060005b80156107a25750600182145b156107b35760006001905050610864565b60011580156107ca5750600180156107c9575060015b5b156107db5760006001905050610863565b600180156107e857506001155b806107fc5750600015806107fb57506001155b5b8061080f57506001801561080e575060015b5b1561081957610862565b3373ffffffffffffffffffffffffffffffffffffffff166108fc60019081150290604051600060405180830381858888f193505050501561085957610861565b600060029050505b5b5b5b5b5b5b600161087257600080fd5b3373ffffffffffffffffffffffffffffffffffffffff166108fc60019081150290604051600060405180830381858888f1935050505080156108b45750600282145b806108bd575060015b6108c657600080fd5b3073ffffffffffffffffffffffffffffffffffffffff1663d0e30db06040518163ffffffff1660e01b8152600401600060405180830381600087803b15801561090e57600080fd5b505af1158015610922573d6000803e3d6000fd5b50505050505056fea265627a7a72315820dc5af7fffc7cc4da4a3e8a277096ded516b12897f00d75c41af8da43236f8f2c64736f6c63430005100032",
  "source": "pragma solidity >= 0.5.8;\r\ncontract Victim {\r\n    bool sent = false;\r\n    address owner; \r\n    uint number = 2432 / 32;\r\n    uint number2 = number;\r\n\r\n    modifier testModifier() {\r\n        uint hellolool;\r\n        _;\r\n    }\r\n\r\n    modifier testModifier2() {\r\n        uint lolol;\r\n        _;\r\n    }\r\n\r\n    function withdraw() public testModifier testModifier2 {\r\n        //Ether to send\r\n        uint transferAmt = 1 ether;\r\n        require(sent);\r\n\r\n        if(!sent){\r\n            //Assign some variables (in a tuple) from return values of call.value()()\r\n            //sent = true;s\r\n            (bool success,) = msg.sender.call.value(transferAmt)(\"\");\r\n            uint hello = 0;\r\n            sent = true;\r\n\r\n            //If call fails, throw exception (revert transaction);\r\n            if (!success) {\r\n              revert(\"The check is failing!!\");\r\n            } \r\n        }\r\n\r\n        msg.sender.send(transferAmt);\r\n    }\r\n    \r\n    //A simple function to deposit some Ether to this contract (payable)\r\n    function deposit() public payable {}\r\n\r\n    function test() public {\r\n        uint a;\r\n        bool b;\r\n        for(uint i=0;i<3;i++){\r\n            \r\n        }\r\n\r\n        while(false){\r\n\r\n        }\r\n\r\n        do {\r\n\r\n        } while(false);\r\n\r\n        if(a == 1 || a == 2){\r\n\r\n        } else if (b || a==2 || a==1) {\r\n        \r\n        } else if(true && true && true && true) {\r\n            a = 2;\r\n        } else if (((false && false) || false) && a == 1) {\r\n            uint hello = 1;\r\n        } else if (!true && (true && true)) {\r\n            bool gello = true;\r\n        } else if ((true && !true) || (!false || !true) || (true && true)) {\r\n            \r\n        } else if (msg.sender.send(1)) {\r\n\r\n        } else {\r\n            uint ballo = 2;\r\n        }\r\n\r\n        require(true);\r\n        require(msg.sender.send(1) && a == 2 || true);\r\n        this.deposit();\r\n    }\r\n\r\n    function exception() public {\r\n        //failures\r\n        msg.sender.call.value(1)(\"\");\r\n        msg.sender.send(1);\r\n\r\n        //test 1 is success\r\n        bool sent = msg.sender.send(1);\r\n        bool sent2 = msg.sender.send(1);    \r\n        \r\n        //test 2 should succeed too\r\n        if(sent){\r\n\r\n        }\r\n\r\n        //sent2 should fail\r\n\r\n        //will pass all\r\n        require(msg.sender.send(1) || msg.sender.send(2));\r\n\r\n        //two failures from test 1) plus one from test 2) should score a total of 3  \r\n    }\r\n\r\n    function time() public returns (uint) {\r\n        block.timestamp;\r\n        block.number;\r\n        now;\r\n\r\n        uint hello = now;\r\n\r\n        uint time = block.timestamp;\r\n        uint num = block.number;\r\n        uint time2 = block.timestamp + 2432 / 32;\r\n        time2 = block.timestamp + 323 - 23;\r\n        time2 = block.timestamp;\r\n        uint time3 = time2;\r\n        uint time4 = 3252 + time;\r\n        uint time5 = time + 2324;\r\n        uint hello2 = hello;\r\n        num = 12 + 12;\r\n\r\n        tx.origin;\r\n        address origin = tx.origin;\r\n\r\n        blockhash(block.timestamp);\r\n\r\n        if(owner == tx.origin || time == block.timestamp || num == block.number || time == num) { //should be problematic, especially if there is a interaction inside\r\n\r\n        }\r\n\r\n        if(true) {\r\n\r\n        } else if (num == block.number) {\r\n            bool send = msg.sender.send(1);\r\n        }\r\n\r\n        return uint(blockhash(block.timestamp)); //problematic\r\n        \r\n    }\r\n\r\n    function delegateCallTest() public {\r\n        msg.sender.delegatecall(\"\");\r\n        (bool success,) = msg.sender.delegatecall(\"\");\r\n\r\n        if(true) {\r\n\r\n        } else if (false) {\r\n            \r\n        }\r\n    }\r\n\r\n    function loops() public {\r\n        uint i;\r\n        for(i=0;i<10;i++){\r\n            uint hello = 2;\r\n            msg.sender.send(1);\r\n        }\r\n\r\n        while(i < 11) {\r\n            i++;\r\n        }\r\n\r\n        do {\r\n            i++;\r\n        } while(i <= 12);\r\n\r\n        if(msg.sender.send(1)) {\r\n            uint hello = 3;\r\n        }\r\n    }\r\n}",
  "sourcePath": "C:\\Users\\User\\OneDrive - Swinburne Masters\\OneDrive - Swinburne University Of Technology Sarawak Campus\\Notes\\Pre Draft Thesis\\sol-web-parser\\contracts\\Victim.sol",
  "compiler": {
    "name": "solc",
    "version": "0.5.16+commit.9c3226ce.Emscripten.clang"
  },
  "schemaVersion": "3.3.3",
  "updatedAt": "2021-03-29T13:13:49.765Z",
  "devdoc": {
    "methods": {}
  },
  "userdoc": {
    "methods": {}
  }
}